:020000040800F2
:10000000700A0020D1010008530E0008A90D000855
:10001000510E0008D7020008DF0E000800000000A3
:10002000000000000000000000000000790E000841
:10003000A105000800000000550E00087B0E000816
:10004000EB010008EB010008EB010008EB010008E0
:10005000EB010008EB010008EB010008EB010008D0
:10006000EB010008EB010008EB010008EB010008C0
:10007000EB010008EB010008EB010008EB010008B0
:10008000EB010008EB010008EB010008EB010008A0
:10009000EB010008EB010008EB010008EB01000890
:1000A000EB010008EB010008EB010008EB01000880
:1000B000EB010008EB010008EB010008EB01000870
:1000C000EB010008EB010008EB010008EB01000860
:1000D000EB010008EB010008EB010008EB01000850
:1000E000EB010008EB010008EB01000800F002F84A
:1000F00000F05EF80AA090E8000C82448344AAF164
:100100000107DA4501D100F053F8AFF2090EBAE861
:100110000F0013F0010F18BFFB1A43F0010318473B
:10012000980E0000B80E000010F8013B0A4413F0CE
:10013000030408BF10F8014B1D1108BF10F8015B44
:10014000641E05D010F8016B641E01F8016BF9D133
:10015000002D15D010F8014B03F00C030C2BA1EB74
:1001600004040ABF10F8013BA4EB8314A4EB03249E
:1001700005F1010314F8016B5B1E01F8016BF9D561
:10018000914238BF10F8013BD1D3704700230024BF
:1001900000250026103A28BF78C1FBD8520728BF97
:1001A00030C148BF0B6070471FB51FBD10B510BDF3
:1001B00000F058F81146FFF7F7FF00F0C5FE00F019
:1001C00076F803B4FFF7F2FF03BC00F07DF80000FF
:1001D0000948804709480047FEE7FEE7FEE7FEE7DB
:1001E000FEE7FEE7FEE7FEE7FEE7FEE70448054917
:1001F000054A064B70470000DD0E0008ED000008C0
:1002000070040020700A0020700600207006002094
:100210004FF0000200B5134694469646203922BF9F
:10022000A0E80C50A0E80C50B1F12001BFF4F7AFEA
:10023000090728BFA0E80C5048BF0CC05DF804EBCC
:10024000890028BF40F8042B08BF704748BF20F83A
:10025000022B11F0804F18BF00F8012B7047704738
:1002600070477047754600F02BF8AE4605006946AA
:10027000534620F00700854618B020B5FFF7B6FFBB
:10028000BDE820404FF000064FF000074FF0000897
:100290004FF0000B21F00701AC46ACE8C009ACE818
:1002A000C009ACE8C009ACE8C0098D46704710B57C
:1002B0000446AFF300802046BDE81040FFF781BF41
:1002C000004870471004002001491820ABBEFEE72B
:1002D000260002007047FEE710B586B0642000F0EB
:1002E00061F9002002902148816941F0100181618B
:1002F00080691F4C00F01000049020200090012025
:100300000190032003906946204600F05DF9082023
:1003100000906946204600F057F900F09DFD00224C
:100320002021204600F045FA00220821204600F056
:1003300040FA00F05BF800F099F80446042000F061
:10034000F7F80A2000F0DCFD002000F0F1F80A20A8
:1003500000F0D6FD052000F0EBF80A2000F0D0FDFB
:10036000A02000F0E5F806B0204610BD00100240C5
:10037000000C01407FB510200090002401201A4E8F
:100380000290019403946946304600F01DF9002262
:100390000821304600F00DFA052000F0B1FD0025DF
:1003A00001220821304600F004FA012000F0A8FDE7
:1003B0006006040E1021304600F0F6F908B144F052
:1003C0000104012000F09CFD00220821304600F0CD
:1003D000F0F9022000F094FD6D1CEDB2082DDFD382
:1003E00004B0204670BD0000000C014010B51E4C4A
:1003F00000220821204600F0DCF90A2000F080FDF0
:1004000001220821204600F0D4F9F42000F078FD04
:1004100000220821204600F0CCF9082000F070FDF1
:1004200001220821204600F0C4F940F2BF1000F07C
:1004300067FD00220821204600F0BBF9082000F0EB
:100440005FFD01220821204600F0B3F940F27F3021
:1004500000F056FD00220821204600F0AAF9BDE870
:1004600010400A2000F04CBD000C014070B5042083
:1004700000F05EF80A2000F043FD002000F058F87C
:100480000A2000F03DFD052000F052F80A2000F09F
:1004900037FDA12000F04CF84FF4167000F082F800
:1004A000852000F045F80A2000F02AFD00244FF4D2
:1004B000FA7508E0284600F075F80A2C01D90120E9
:1004C00070BD641CE4B2FFF755FF8007F2D170BD28
:1004D00010B5B0F5801F00D314480401002000F0CF
:1004E00027F80A2000F00CFDC4F3074000F020F8C4
:1004F0000A2000F005FD012000F01AF80A2000F0A3
:10050000FFFCC4F3072000F013F80A2000F0F8FC09
:10051000022000F00DF80A2000F0F2FCE0B200F03A
:1005200007F8BDE810400A2000F0EABCFFFF0F000A
:1005300070B5054600F090FC184E002208213046A8
:1005400000F037F900221021304600F032F9052082
:1005500000F0D6FC0024280601D5012200E000228C
:100560001021304600F025F96806050E052000F040
:10057000C7FC01220821304600F01BF9022000F0E0
:10058000BFFC00220821304600F013F9022000F0E1
:10059000B7FC641CE4B2082CDDD370BD000C014034
:1005A0007047000070B5044600F008F90546601C6D
:1005B00002D004480078044400F000F9401BA04237
:1005C000FAD370BD000000202DE9F84FDFF8B89194
:1005D0000024A9F1040B23460F2709F1040AABF10B
:1005E000040EC9E00125A5402A40AA427DD1674EEC
:1005F000D1F804C0ACEB0608B44532D014DCBCF131
:10060000030F3AD009DCBCF1000F2AD0BCF1010F76
:100610001CD0BCF1020F31D11DE0BCF1110F17D07D
:10062000BCF1120F2AD119E0B8F5881F19D006DCE9
:10063000B8F5803F15D0B8F5801F1FD111E0B8F58F
:10064000001F0ED0B8F5041F18D10AE0CB6815E0E2
:10065000CB681B1D12E0CB6808330FE0CB680C336E
:100660000CE08B682BB1012B4FF0080303D04561E0
:1006700004E0042302E0056100E00023FF2A01D822
:10068000064601E000F104064FEA840501D9A5F110
:100690002005D6F8008007FA05FC28EA0C0803FAC2
:1006A00005F548EA0508C6F800804D68ED0062D5FA
:1006B000374DAE6946F00106AE61AD6924F0030620
:1006C00005F001050095334D06EB050CDCF80850EC
:1006D000A607360F07FA06F825EA0805DFF8B880FE
:1006E000404503D14FF0000817E044E0DFF8AC804C
:1006F000404502D14FF001080FE0DFF8A4804045EB
:1007000002D14FF0020808E0DFF89880404502D19E
:100710004FF0030801E04FF0040808FA06F848EA31
:100720000508CCF808804D68D9F80060ED024D4608
:1007300001D5164300E096432E604D68DAF800605C
:10074000AD02554601D5164300E096432E604D6834
:10075000DBF80060AD035D4601D5164300E096432B
:100760002E604D68DEF80060ED03754601D5164336
:1007700000E096432E60641C0D682A46E5407FF435
:1007800031AFBDE8F88F00000804014000001110EF
:10079000001002400000014000080140000C014030
:1007A00000100140001401408068084000D0012082
:1007B00070470AB1016170470904FBE7014880688E
:1007C0007047000000000020024881680278114450
:1007D0008160704700000020074810B5016841F0B3
:1007E00010010160032000F067F80F2000F006F808
:1007F00000F024F8002010BD0020024070B50D4D1F
:1008000004464FF47A712878B1FBF0F00A49096880
:10081000B1FBF0F000F0B4FA48B9102C07D2002276
:100820002146501E00F028F800206C6070BD0120A9
:1008300070BD0000000000200C0000200C4808B52E
:10084000816941F001018161816901F0010100913B
:10085000C16941F08051C161C06900F080500090D1
:100860000448416821F0E06141F00071416008BD39
:100870000010024000000140F0B40E4B1B680C4613
:10088000C3F30223C3F10705042D00D90425191D64
:10089000072901D2002300E0DB1E012606FA05F13C
:1008A000491E214099409E40761E16403143F0BCBF
:1008B00000F016BB0CED00E0064900F007020868E6
:1008C0004FF6FF03184040EA0220034A1043086035
:1008D000704700000CED00E00000FA052DE9F0473C
:1008E0000F46050061D0434E306800F00700B84263
:1008F00009D2306820F0070038433060306800F0DB
:100900000700B84251D128683B4C810712D54007F7
:1009100003D5606840F4E06060602878000703D584
:10092000606840F4605060606068A96820F0F00082
:10093000084360602878C00728D06868012810D074
:100940002168022810D0890700292EDA616821F079
:10095000030101436160FFF731FF804641F28839AE
:100960000DE021688903EFE78901EDE7FFF726FF36
:10097000A0EB0801494502D90320BDE8F087606873
:10098000696800F00C00B0EB810FEFD1306800F027
:100990000700B8420BD9306820F0070038433060B8
:1009A000306800F00700B84201D00120E5E7287860
:1009B000400705D56068E96820F4E060084360609E
:1009C0002878000706D56068296920F4605040EA5D
:1009D000C100606000F01EF86168084AC1F30311AD
:1009E000515CC8400649086006480068FFF706FFEA
:1009F0000020C2E70020024000100240A60F0008BD
:100A00000C0000200400002001480068704700002E
:100A10000C0000200E4A51680E4801F00C03042B14
:100A200011D0082B0FD10C48C1F38343C903C05C1C
:100A30000AD55168084AC1F34041921E515C054AEB
:100A40005043B0FBF1F07047044948437047000041
:100A50000010024000127A00960F000800093D00C5
:100A60002DE9F84F040070D02078C04DC00749D060
:100A70006868C0F38100012807D06868C0F381006E
:100A8000022809D16868C00306D52868800339D5D3
:100A900060680028E7D035E06068B0F5803F0BD093
:100AA00010B1B0F5A02F11D0286820F48030286054
:100AB000286820F4802002E0286840F48030286014
:100AC000606890B1FFF77AFE06460AE0286840F4B5
:100AD00080202860F0E700BFFFF770FE801B6428CD
:100AE00073D828688003F7D50CE0FFF767FE064649
:100AF00005E000BFFFF762FE801B6428F0D828687D
:100B00008003F7D420789A4E80074FF001094FF008
:100B1000000839D5686810F00C0F07D06868C0F37A
:100B20008100022809D16868C00306D428688007BC
:100B300014D52069012808D110E02069B0B1C6F8A9
:100B40000090FFF73BFE074605E00AE1FFF736FE9F
:100B5000C01B0228C4D828688007F7D528686169B7
:100B600020F0F80040EAC10028600DE0C6F80080DF
:100B7000FFF724FE074604E0FFF720FEC01B022813
:100B800023D828688007F7D4207800072CD5794827
:100B9000A169D9B1C0F80090FFF710FE074604E044
:100BA000FFF70CFEC01B02280FD8686A8007F7D534
:100BB00071484FF4FA510068B0FBF1F0009000BFAB
:100BC0000098411E0091FAD20EE080E0C0F800804B
:100BD000FFF7F4FD074604E0FFF7F0FDC01B022815
:100BE00075D8686A8007F7D42078400760D5E8692F
:100BF0000027C00008D4E86940F08050E861E86947
:100C0000012700F0805000905C480168C90513D4AA
:100C10000168834641F480710160FFF7CFFD824691
:100C200006E000BFFFF7CAFDA0EB0A0064284ED81B
:100C3000DBF80000C005F5D5E06801280AD008B14E
:100C4000052813D0286A20F001002862286A20F0C5
:100C5000040002E0286A40F001002862E06841F2E6
:100C6000883B98B1FFF7AAFD82460BE0286A40F066
:100C700004002862EEE700BFFFF7A0FDA0EB0A0129
:100C800059455AD8286A8007F6D50CE0FFF796FD3B
:100C9000824605E0FFF792FDA0EB0A0159454CD8CA
:100CA000286A8007F6D41FB1E86920F08050E86117
:100CB000E06988B36968C1F38101022944D0022840
:100CC000C6F8608004D0FFF779FD044638E034E0D0
:100CD000FFF774FD074604E0FFF770FDC01B022814
:100CE0002BD828688001F7D4206AB0F5803F05D161
:100CF0006868A16820F4003008436860D4E90801FE
:100D00000843696821F4741108436860C6F860906C
:100D1000FFF754FD044606E025E000BFFFF74EFD57
:100D2000001B022809D828688001F7D51BE000BF06
:100D3000FFF744FD001B022802D90320BDE8F88F0D
:100D400028688001F4D40EE00128F7D06868226A90
:100D500000F48031914204D1616A00F4701088423D
:100D600001D00120EAE70020E8E70000001002407F
:100D700000004242800442420C000020007000400B
:100D800010B5401EB0F1807F01D3012010BD4FF09F
:100D9000E02460610F21601700F0A2F80020A0613C
:100DA00007202061002010BDFEE70000F0B585B0EF
:100DB000002424480094019402940394816941F032
:100DC00010018161816901F010010491816941F094
:100DD00020018161816901F020010491816941F064
:100DE00004018161816901F004010491816941F08C
:100DF000080181618069144E00F008004FF400552D
:100E00000490002229463046FFF7D3FC0F4F012201
:100E100038213846FFF7CDFC0220CDE9024000958D
:100E20000125694601953046FFF7CEFB3820CDE914
:100E300000050320CDE9024069463846FFF7C4FBB0
:100E400005B0F0BD0010024000100140000C014050
:100E5000FEE7FEE7704700001FB50020029010205B
:100E60000090012001900320039069460148FFF79C
:100E7000ABFB1FBD000C01407047FFF7A5BC30B5B0
:100E80008FB028216846FFF7C3F914210AA8FFF79D
:100E9000BFF901210804CDE90010002402940225C5
:100EA0000491CDE907504FF4E01009906846FFF730
:100EB000D7FD08B172B6FEE70F20CDE90A054FF461
:100EC0008060CDE90C4002210AA80E94FFF706FDD0
:100ED000002801D072B6FEE70FB030BD7047FEE7C4
:100EE0000907090E002804DB00F1E02080F8001457
:100EF000704700F00F0000F1E02080F8141D7047EB
:100F000070B50E4C05462068C0070AD10C48016830
:100F100041F08071016000206060206840F00100B5
:100F200020606668FFF770FD0649B0FBF1F068438A
:100F30006168891B8142FBD370BD0000001000E096
:100F4000FCED00E040420F00FFF746FCFFF797FF83
:100F5000FFF72CFFFFF7C0F90024A0B15FF00002FB
:100F60004FF400510948FFF724FC094D55F82400BF
:100F7000FFF7AEFA641CA4B2FF2C00D900240120B4
:100F8000FFF710FBF2E70122EAE700000010014042
:100F900010000020010202030405060708090A0BDD
:100FA0000C0D0E0F101000000000000000000102E8
:100FB0000304060708090000D80F000800000020FD
:100FC0001004000028010008481200081004002046
:100FD000600600008C0100085007010000001000AE
:100FE0000143127A08122004124004126004128095
:100FF0000412A00412C00422E025113212200412AF
:10100000400412600412800412A00412C00422E002
:101010004E120220110412400412600412800412C5
:10102000A00412C00412E01C13000320110412409B
:101030000412600412800412A00412C00412E01C06
:1010400013000420110412400412600412800412E0
:10105000A00412C00412E01C130005201104124069
:101060000412600412800412A00412C00412E01CD6
:1010700013000620110412400412600412800412AE
:10108000A00412C00412E01C130007201104124037
:101090000412600412800412A00412C00412E01CA6
:1010A000130008201104124004126004128004127C
:1010B000A00412C00412E01C130009201104124005
:1010C0000412600412800412A00412C00412E01C76
:1010D00013000A201104124004126004128004124A
:1010E000A00412C00412E01C13000B2011041240D3
:1010F0000412600412800412A00412C00412E01C46
:1011000013000C2011041240041260041280041217
:10111000A00412C00412E01C13000D2011041240A0
:101120000412600412800412A00412C00412E01C15
:1011300013000E20110412400412600412800412E5
:10114000A00412C00412E01C13000F20110412406E
:101150000412600412800412A00412C0044BE00FB9
:101160000E52E01052A0205260302138214052E04F
:101170005052A0605260702178218052E09052A0BD
:10118000A05260B021B821C052E0D052A0E052601D
:10119000F021F8250056E01056A020566030253882
:1011A000254056E05056A060566070257825805640
:1011B000E09056A0A05660B025B825C056E0D056A5
:1011C000A0E05660F025F829005AE0105AA0205AF5
:1011D0006030293829405AE0505AA0605A6070297E
:1011E0007829805AE0905AA0A05A60B029B829C046
:1011F0005AE0D05AA0E05A60F029F82D00035EE0D2
:1012000010035EA020035E6030032D38032D4003E1
:101210005EE050035EA060035E6070032D78032DD6
:1012200080035EE090035EA0A0035E60B0032DB873
:10123000032DC0035EE0D0035EA0E0035E60F00318
:08124000000400200000000082
:04000005080000ED02
:00000001FF
